S01B000061746D656C5F6469676974616C7265676C65722E7372656338
S11300000C945A000C946C000C946C000C946C00CE
S11300100C946C000C946C000C946C000C946C00AC
S11300200C946C000C946C000C946C000C946C009C
S11300300C946C000C946C000C946C000C946C008C
S11300400C946C000C946C000C946C000C946C007C
S11300500C946C000C946C000C946C000C946C006C
S11300600C946C000C946C000C946C000C946C005C
S11300700C946C000C946C000C946C000C946C004C
S11300800C946C000C9415030C946C000C946C0090
S11300900C946C000C946C000C946C000C946C002C
S11300A00C946C000C941E020C94D0020C946C0002
S11300B00C946C0011241FBECFEFD8E0DEBFCDBF7F
S11300C021E0A0E0B1E001C01D92A033B207E1F746
S11300D00E946E000C9453050C9400000F931F9320
S11300E0CF93DF93CDB7DEB70E94D7000E94F30011
S11300F00E942B0160E072EC81E090E00E945101CB
S11301000E9402020E94BC0160E070E0CB010E94E8
S1130110CD0180EC90E0FC018081881F8827881F36
S11301208823B9F300910C0110910D010E94130270
S1130130282FC801825F9E4FFC01208380910C010F
S113014090910D01825F9E4FFC018081882351F0C4
S113015080910C0190910D01825F9E4FFC01808182
S11301608D30D9F480910E01813291F480910F0188
S1130170833771F480911001803350F08091100125
S11301808A3330F480911101803310F08091110191
S113019010920D0110920C0109C080910C019091F4
S11301A00D01019690930D0180930C01B2CFCF9372
S11301B0DF93CDB7DEB710920D0110920C011092AF
S11301C00001109201011092020110920301109299
S11301D0040110920501109206011092070100001B
S11301E0DF91CF910895CF93DF93CDB7DEB784E24B
S11301F090E024E230E0F90120812260FC012083B8
S113020080E890E020E830E0F90120812068FC01DA
S1130210208380E890E020E830E0F901208122602A
S1130220FC01208381E890E021E830E0F90120819D
S11302302861FC01208386E890E020E931E0FC019C
S11302403183208388E890E0FC0111821082000051
S1130250DF91CF910895CF93DF93CDB7DEB781EAD5
S113026090E021EA30E0F90120812860FC0120833C
S113027082E790E022E730E0F90120812262FC016C
S1130280208384EA90E0FC011182108288EA90E0E5
S113029025E33CE0FC01318320830000DF91CF9112
S11302A00895CF93DF9300D000D0CDB7DEB7698334
S11302B07A838B839C8381EC90E021EC30E0F9011C
S11302C020812861FC01208389819A81AB81BC81D2
S11302D08115924CA140B10539F488E090E09093E7
S11302E02F0180932E0125C089819A81AB81BC8125
S11302F0880F991FAA1FBB1F880F991FAA1FBB1F16
S1130300880F991FAA1FBB1F880F991FAA1FBB1F05
S11303109C01AD0180E094E2A4EFB0E0BC01CD010A
S11303200E943105DA01C901019790932F0180934E
S11303302E0184EC90E020912E0130912F01FC01DC
S1130340208385EC90E020912E0130912F01232F02
S11303503327FC01208382EC90E022EC30E0F901A9
S113036020812660FC01208300000F900F900F90E5
S11303700F90DF91CF910895CF93DF93CDB7DEB780
S113038081EA90E021EA30E0F90120812460FC0157
S113039020830000DF91CF9108950F931F93CF9393
S11303A0DF9300D000D0CDB7DEB769837A838B8327
S11303B09C8307E410E020E030E048EC53E46981DA
S11303C07A818B819C810E94C404DC01CB01BC0135
S11303D0CD010E940704DC01CB01F801808385E490
S11303E090E025E430E0F90120812160FC012083C4
S11303F000000F900F900F900F90DF91CF911F91FD
S11304000F910895CF93DF93CDB7DEB78FE590E0DA
S11304102FE530E0F90120812068FC0120830000F1
S1130420DF91CF910895CF93DF93CDB7DEB786ECFC
S113043090E0FC018081DF91CF9108951F920F928B
S113044000905F000F9211242F933F934F935F937B
S11304506F937F938F939F93AF93BF93EF93FF9388
S1130460CF93DF9300D000D0CDB7DEB781EA90E020
S113047021EA30E0F90120812B7FFC01208386EA08
S113048090E0FC0180819181CC01A0E0B0E0BC014E
S1130490CD010E943604DC01CB012DEB37E346E0AD
S11304A057E3BC01CD010E94C404DC01CB01898364
S11304B09A83AB83BC838091000190910101A09148
S11304C00201B091030129813A814B815C81BC0115
S11304D0CD010E942903DC01CB0180930401909398
S11304E00501A0930601B093070180910401909146
S11304F00501A0910601B09107019C01AD016AE9D3
S113050079E989E19EE30E949503DC01CB019C011A
S1130510AD01BC01CD010E942903DC01CB012BED0F
S11305203FE049E450E4BC01CD010E94C404DC0175
S1130530CB018093080190930901A0930A01B09321
S11305400B0184EA90E0FC011182108210920001F8
S113055010920101109202011092030181EA90E0CD
S113056021EA30E0F90120812460FC0120830000AD
S11305700F900F900F900F90DF91CF91FF91EF911B
S1130580BF91AF919F918F917F916F915F914F91A7
S11305903F912F910F9000925F000F901F9018953C
S11305A01F920F9200905F000F9211242F933F939C
S11305B04F935F936F937F938F939F93AF93BF9367
S11305C0EF93FF93CF93DF93CDB7DEB78091000114
S11305D090910101A0910201B09103012DEC3CEC3A
S11305E04CEC5DE3BC01CD010E942903DC01CB018D
S11305F08093000190930101A0930201B093030141
S11306000000DF91CF91FF91EF91BF91AF919F9146
S11306108F917F916F915F914F913F912F910F90A7
S113062000925F000F901F9018951F920F920090F8
S11306305F000F921124CF93DF93CDB7DEB7000094
S1130640DF91CF910F9000925F000F901F9018954B
S11306505058BB27AA270E9440030C948A040E9486
S11306607C0438F00E94830420F039F49F3F19F48D
S113067026F40C9479040EF4E095E7FB0C947304CF
S1130680E92F0E949B0458F3BA1762077307840783
S1130690950720F079F4A6F50C94BD040EF4E095CA
S11306A00B2EBA2FA02D0B01B90190010C01CA0128
S11306B0A0011124FF27591B99F0593F50F4503ED3
S11306C068F11A16F040A22F232F342F4427585FC5
S11306D0F3CF469537952795A795F0405395C9F7DD
S11306E07EF41F16BA0B620B730B840BBAF0915095
S11306F0A1F0FF0FBB1F661F771F881FC2F70EC034
S1130700BA0F621F731F841F48F487957795679506
S1130710B795F7959E3F08F0B0CF9395880F08F0F2
S11307209927EE0F9795879508950E94A9030C9435
S11307308A040E94830458F00E947C0440F029F447
S11307405F3F29F00C94730451110C94BE040C9473
S113075079040E949B0468F39923B1F3552391F320
S1130760951B550BBB27AA2762177307840738F01C
S11307709F5F5F4F220F331F441FAA1FA9F335D079
S11307800E2E3AF0E0E832D091505040E695001C2D
S1130790CAF72BD0FE2F29D0660F771F881FBB1FE7
S11307A0261737074807AB07B0E809F0BB0B802DC5
S11307B0BF01FF2793585F4F3AF09E3F510578F0F1
S11307C00C9473040C94BE045F3FE4F3983ED4F39A
S11307D0869577956795B795F7959F5FC9F7880FC5
S11307E0911D9695879597F90895E1E0660F771F17
S11307F0881FBB1F621773078407BA0720F0621BA8
S1130800730B840BBA0BEE1F88F7E09508950E94D2
S1130810A30488F09F5798F0B92F9927B751B0F0E7
S1130820E1F0660F771F881F991F1AF0BA95C9F770
S113083014C0B13091F00E94BD04B1E008950C944D
S1130840BD04672F782F8827B85F39F0B93FCCF300
S1130850869577956795B395D9F73EF490958095ED
S1130860709561957F4F8F4F9F4F0895E89409C00D
S113087097FB3EF490958095709561957F4F8F4FCF
S11308809F4F9923A9F0F92F96E9BB279395F695E5
S1130890879577956795B795F111F8CFFAF4BB0F63
S11308A011F460FF1BC06F5F7F4F8F4F9F4F16C0C7
S11308B0882311F096E911C0772321F09EE8872F51
S11308C0762F05C0662371F096E8862F70E060E00D
S11308D02AF09A95660F771F881FDAF7880F969586
S11308E0879597F9089597F99F6780E870E060E02D
S11308F008959FEF80EC089500240A9416161706B5
S113090018060906089500240A94121613061406FC
S113091005060895092E0394000C11F4882352F05F
S1130920BB0F40F4BF2B11F460FF04C06F5F7F4F17
S11309308F4F9F4F089557FD9058440F551F59F0FE
S11309405F3F71F04795880F97FB991F61F09F3FB8
S113095079F087950895121613061406551FF2CFE1
S11309604695F1DF08C0161617061806991FF1CF31
S113097086957105610508940895E894BB27662758
S11309807727CB0197F908950E94D7040C948A0421
S11309900E947C0438F00E94830420F0952311F017
S11309A00C9473040C94790411240C94BE040E94D6
S11309B09B0470F3959FC1F3950F50E0551F629F00
S11309C0F001729FBB27F00DB11D639FAA27F00DA4
S11309D0B11DAA1F649F6627B00DA11D661F829FCB
S11309E02227B00DA11D621F739FB00DA11D621FB0
S11309F0839FA00D611D221F749F3327A00D611DCD
S1130A00231F849F600D211D822F762F6A2F1124AE
S1130A109F5750409AF0F1F088234AF0EE0FFF1FE1
S1130A20BB1F661F771F881F91505040A9F79E3F38
S1130A30510580F00C9473040C94BE045F3FE4F3FE
S1130A40983ED4F3869577956795B795F795E7958E
S1130A509F5FC1F7FE2B880F911D9695879597F997
S1130A600895A1E21A2EAA1BBB1BFD010DC0AA1FEB
S1130A70BB1FEE1FFF1FA217B307E407F50720F003
S1130A80A21BB30BE40BF50B661F771F881F991F7E
S1130A901A9469F760957095809590959B01AC01C7
S10D0AA0BD01CF010895F894FFCFC3
S9030000FC
