:100000000C94F5000C9412010C9412010C94120142
:100010000C9412010C9412010C9412010C94120114
:100020000C9412010C9412010C9412010C94120104
:100030000C9412010C9412010C9412010C941201F4
:100040000C9412010C9412010C9412010C941201E4
:100050000C9412010C9412010C9412010C941201D4
:100060000C9412010C9412010C9412010C941201C4
:100070000C9412010C9412010C9412010C941201B4
:100080000C9412010C94C0040C9412010C941201F3
:100090000C9412010C9412010C9412010C94120194
:1000A0000C9412010C94FB030C94A0040C94120108
:1000B0000C9412014E414E494E495459494E46CD79
:1000C000CCCC3D0AD7233C17B7D13877CC2B32950F
:1000D00095E6241FB14F0A000020410000C84200ED
:1000E000401C4620BCBE4CCA1B0E5AAEC59D7400B7
:1000F000407A10F35A00A0724E18090010A5D4E8F7
:100100000000E87648170000E40B54020000CA9A89
:100110003B000000E1F505000080969800000040DB
:10012000420F000000A08601000000102700000020
:1001300000E803000000006400000000000A000066
:100140000000000100000000002C76D888DC674F1A
:100150000823DFC1DFAE59E1B1B796E5E3E453C64A
:100160003AE651997696E8E6C28426EB898C9B6242
:10017000ED407C6FFCEFBC9C9F40F2BAA56FA5F4EC
:1001800090055A2AF75C936B6CF9676DC11BFCE014
:10019000E40D47FEF520E6B500D0ED902E03009467
:1001A0003577050080841E080000204E0A000000FC
:1001B000C80C333333330F986E12831141EF8D2106
:1001C00014893BE65516CFFEE6DB18D1844B381B6D
:1001D000F77C1D901DA4BBE424203284725E228132
:1001E00000C9F124ECA1E53D270011241FBECFEF8B
:1001F000D8E0DEBFCDBF11E0A0E0B1E0EEEBFEE164
:1002000002C005900D92AC30B107D9F721E0ACE007
:10021000B1E001C01D92AD39B207E1F70E941401AF
:100220000C945D0F0C9400000F931F93CF93DF93FA
:10023000CDB7DEB70E9460020E9478020E94D6020B
:100240000E94B00260E072EC81E090E00E94FC024B
:100250000E94BE030E94780360E070E0CB010E9420
:1002600089030E9467030E946D01809136018823F3
:10027000D1F31092360180912A0190912B01A09127
:100280002C01B0912D0109E511E026E048E0BC0108
:10029000CD010E94910889E591E0892F8F9389E52E
:1002A00091E08F9380E091E0892F8F9380E091E03F
:1002B0008F9389E791E0892F8F9389E791E08F935E
:1002C0000E94B5080F900F900F900F900F900F9015
:1002D00089E791E00E941802C6CF0F931F93CF9336
:1002E000DF9300D0CDB7DEB780EC90E0FC018081D9
:1002F000881F8827881F882309F492C0009137013E
:10030000109138010E945502282FC801875C9E4F2A
:10031000FC0120838091370190913801875C9E4FCA
:10032000FC018081882359F0809137019091380138
:10033000875C9E4FFC0180818D3009F068C0809100
:1003400039018F3309F05DC080913A01833709F09C
:1003500058C01A82198289819A814E979CF48981AA
:100360009A810296875C9E4FFC01208189819A8147
:10037000875C9E4FFC01208389819A8101969A8334
:100380008983E9CF89E391E00E94B108DC01CB01C8
:1003900080932E0190932F01A0933001B0933101EF
:1003A00080912E0190912F01A0913001B0913101E7
:1003B00009E511E024E045E0BC01CD010E9491086F
:1003C00089E591E0892F8F9389E591E08F9385E00E
:1003D00091E0892F8F9385E091E08F9389E391E0FD
:1003E000892F8F9389E391E08F930E94B5080F9036
:1003F0000F900F900F900F900F9089E391E00E9463
:1004000018021092380110923701000009C0809143
:10041000370190913801019690933801809337010C
:1004200000000F900F90DF91CF911F910F910895D1
:10043000CF93DF9300D000D0CDB7DEB79C838B8302
:100440001A8219822B813C8189819A81820F931FA4
:10045000FC018081882309F180EC90E0FC0180811F
:10046000882F90E08072992721E0892B09F020E005
:10047000222309F0F1CF86EC90E04B815C81298149
:100480003A81240F351FF9012081FC0120838981E5
:100490009A8101969A838983D5CF00000F900F909F
:1004A0000F900F90DF91CF910895CF93DF93CDB749
:1004B000DEB786EC90E0FC018081DF91CF9108955A
:1004C000CF93DF93CDB7DEB710923801109237018A
:1004D000109229011092280110922A0110922B01EA
:1004E00010922C0110922D010000DF91CF91089500
:1004F000CF93DF93CDB7DEB784E290E024E230E023
:10050000F90120812260FC01208380E890E020E84E
:1005100030E0F90120812068FC01208380E890E030
:1005200020E830E0F90120812260FC01208381E88D
:1005300090E021E830E0F90120812861FC0120836E
:1005400086E890E020E931E0FC013183208388E8EF
:1005500090E0FC01118210820000DF91CF9108959C
:10056000CF93DF93CDB7DEB781EA90E021EA30E0A8
:10057000F90120812860FC01208382E790E022E7D6
:1005800030E0F90120812262FC01208384EA90E0BE
:10059000FC011182108288EA90E029E136E0FC013A
:1005A000318320830000DF91CF910895CF93DF93B3
:1005B000CDB7DEB781E990E021E930E0F901208193
:1005C0002860FC01208381E790E021E730E0F90119
:1005D00020812260FC01208384E990E0FC011182EB
:1005E000108288E990E021EE34E0FC013183208321
:1005F0000000DF91CF910895CF93DF9300D000D01A
:10060000CDB7DEB769837A838B839C8389819A8196
:10061000AB81BC818115924CA140B10539F488E0D1
:1006200090E090939A018093990125C089819A81E5
:10063000AB81BC81880F991FAA1FBB1F880F991F10
:10064000AA1FBB1F880F991FAA1FBB1F880F991FC6
:10065000AA1FBB1F9C01AD0180E094E2A4EFB0E0B3
:10066000BC01CD010E946F08DA01C9010197909386
:100670009A018093990184EC90E020919901309146
:100680009A01FC01208385EC90E020919901309142
:100690009A01232F3327FC01208382EC90E022EC87
:1006A00030E0F90120812660FC01208381EC90E09C
:1006B00021EC30E0F90120812861FC012083000059
:1006C0000F900F900F900F90DF91CF910895CF93DF
:1006D000DF93CDB7DEB781E990E021E930E0F901A1
:1006E00020812460FC0120830000DF91CF910895D8
:1006F000CF93DF93CDB7DEB781EA90E021EA30E017
:10070000F90120812460FC0120830000DF91CF915A
:1007100008950F931F93CF93DF9300D000D0CDB7F0
:10072000DEB769837A838B839C8307E410E020E043
:1007300030E048EC53E469817A818B819C810E948E
:100740000208DC01CB01BC01CD010E941C07DC01C9
:10075000CB01F801808385E490E025E430E0F901E5
:1007600020812160FC01208300000F900F900F90EA
:100770000F90DF91CF911F910F910895CF93DF9349
:10078000CDB7DEB78FE590E02FE530E0F9012081AD
:100790002068FC0120830000DF91CF9108950F9322
:1007A0001F93CF93DF9300D000D0CDB7DEB769831E
:1007B0007A838B839C8307E410E020E030E048ECF0
:1007C00053E469817A818B819C810E940208DC015B
:1007D000CB01BC01CD010E941C07DC01CB01F8015B
:1007E000808300000F900F900F900F90DF91CF91BA
:1007F0001F910F9108951F920F9200905F000F922A
:100800001124CF92DF92EF92FF922F933F934F9359
:100810005F936F937F938F939F93AF93BF93EF9368
:10082000FF93CF93DF93CDB7DEB784EA90E0FC016E
:10083000118210828091280190912901092E000CCB
:10084000AA0BBB0BBC01CD010E944D07DC01CB0103
:1008500026E03CEB4CEC5CE3BC01CD010E940208BD
:10086000DC01CB016C017D0186EA90E0FC01808116
:100870009181CC01A0E0B0E0BC01CD010E944B070A
:10088000DC01CB012DEB37E346E857E3BC01CD019A
:100890000E940208DC01CB019C01AD01C701B60139
:1008A0000E943906DC01CB019C01AD0160E070E0E3
:1008B00080E89FE30E94AA06DC01CB0180932A0115
:1008C00090932B01A0932C01B0932D0180912A01CC
:1008D00090912B01A0912C01B0912D019C01AD01B3
:1008E0006BE376E481E79FE30E94AA06DC01CB017B
:1008F0008093320190933301A0933401B09335017A
:10090000109229011092280181E0809336010000A5
:10091000DF91CF91FF91EF91BF91AF919F918F9117
:100920007F916F915F914F913F912F91FF90EF9049
:10093000DF90CF900F9000925F000F901F9018955E
:100940001F920F9200905F000F9211248F939F933C
:10095000CF93DF93CDB7DEB7809128019091290125
:10096000019690932901809328010000DF91CF9197
:100970009F918F910F9000925F000F901F9018959C
:100980001F920F9200905F000F921124EF92FF923E
:100990000F931F932F933F934F935F936F937F9387
:1009A0008F939F93AF93BF93EF93FF93CF93DF9377
:1009B00000D000D0CDB7DEB78091320190913301E5
:1009C000A0913401B091350120912E0130912F0179
:1009D0004091300150913101BC01CD010E94380697
:1009E000DC01CB0180930C0190930D01A0930E01CB
:1009F000B0930F01E12CF12C00E01FE380910C017A
:100A000090910D01A0910E01B0910F019C01AD01DB
:100A1000C801B7010E940208DC01CB0180931401D8
:100A200090931501A0931601B093170180910C01CA
:100A300090910D01A0910E01B0910F012AE037EDC8
:100A400043EA5CE3BC01CD010E940208DC01CB015A
:100A50007C018D018091200190912101A0912201C2
:100A6000B09123019C01AD01C801B7010E94390674
:100A7000DC01CB018093200190932101A0932201FE
:100A8000B09323011AE9E12E19E9F12E09E91EE3D9
:100A90008091200190912101A0912201B091230128
:100AA0009C01AD01C801B7010E940208DC01CB0125
:100AB0008093180190931901A0931A01B0931B0120
:100AC00080910C0190910D01A0910E01B0910F0148
:100AD00020911C0130911D0140911E0150911F0178
:100AE000BC01CD010E943806DC01CB017C018D01E7
:100AF0008AE097EDA3EABCE39C01AD01C801B70110
:100B00000E94AA06DC01CB0189839A83AB83BC8354
:100B10008DEC9CECACECBDE329813A814B815C818E
:100B2000BC01CD010E940208DC01CB0180931001C1
:100B300090931101A0931201B093130180911401BD
:100B400090911501A0911601B0911701209110010B
:100B5000309111014091120150911301BC01CD015E
:100B60000E943906DC01CB017C018D0180911801C6
:100B700090911901A0911A01B0911B019C01AD0146
:100B8000C801B7010E943906DC01CB018093240122
:100B900090932501A0932601B09327018091240111
:100BA00090912501A0912601B091270120E030E02D
:100BB00040E85FE3BC01CD010E94FD0718163CF43C
:100BC00060E070E080E89FE30E94CF0324C0809142
:100BD000240190912501A0912601B09127012FEFCA
:100BE00036EE4BED5EE2BC01CD010E94A5068823E6
:100BF00034F460E070E0CB010E94CF030CC0809120
:100C0000240190912501A0912601B0912701BC01FA
:100C1000CD010E94CF0380910C0190910D01A09114
:100C20000E01B0910F0180931C0190931D01A093C0
:100C30001E01B0931F0100000F900F900F900F90B6
:100C4000DF91CF91FF91EF91BF91AF919F918F91E4
:100C50007F916F915F914F913F912F911F910F91D4
:100C6000FF90EF900F9000925F000F901F901895EB
:100C70005058BB27AA270E9450060C94C3070E9415
:100C8000B50738F00E94BC0720F039F49F3F19F4F3
:100C900026F40C94B2070EF4E095E7FB0C94AC0735
:100CA000E92F0E94D40758F3BA1762077307840725
:100CB000950720F079F4A6F50C94F6070EF4E0956C
:100CC0000B2EBA2FA02D0B01B90190010C01CA0106
:100CD000A0011124FF27591B99F0593F50F4503EB1
:100CE00068F11A16F040A22F232F342F4427585FA3
:100CF000F3CF469537952795A795F0405395C9F7BB
:100D00007EF41F16BA0B620B730B840BBAF0915072
:100D1000A1F0FF0FBB1F661F771F881FC2F70EC011
:100D2000BA0F621F731F841F48F4879577956795E4
:100D3000B795F7959E3F08F0B0CF9395880F08F0D0
:100D40009927EE0F9795879508950E94880708F4D4
:100D500081E008950E94BE060C94C3070E94BC0760
:100D600058F00E94B50740F029F45F3F29F00C9439
:100D7000AC0751110C94F7070C94B2070E94D407EA
:100D800068F39923B1F3552391F3951B550BBB27BA
:100D9000AA2762177307840738F09F5F5F4F220FFF
:100DA000331F441FAA1FA9F335D00E2E3AF0E0E8F6
:100DB00032D091505040E695001CCAF72BD0FE2F40
:100DC00029D0660F771F881FBB1F261737074807D4
:100DD000AB07B0E809F0BB0B802DBF01FF2793588C
:100DE0005F4F3AF09E3F510578F00C94AC070C949D
:100DF000F7075F3FE4F3983ED4F3869577956795C0
:100E0000B795F7959F5FC9F7880F911D96958795C0
:100E100097F90895E1E0660F771F881FBB1F6217DF
:100E200073078407BA0720F0621B730B840BBA0B9D
:100E3000EE1F88F7E09508950E94DC0788F09F5721
:100E400098F0B92F9927B751B0F0E1F0660F771FEE
:100E5000881F991F1AF0BA95C9F714C0B13091F0E4
:100E60000E94F607B1E008950C94F607672F782FDB
:100E70008827B85F39F0B93FCCF3869577956795A9
:100E8000B395D9F73EF490958095709561957F4F15
:100E90008F4F9F4F0895E89409C097FB3EF49095BB
:100EA0008095709561957F4F8F4F9F4F9923A9F043
:100EB000F92F96E9BB279395F695879577956795D2
:100EC000B795F111F8CFFAF4BB0F11F460FF1BC016
:100ED0006F5F7F4F8F4F9F4F16C0882311F096E9A9
:100EE00011C0772321F09EE8872F762F05C0662357
:100EF00071F096E8862F70E060E02AF09A95660F10
:100F0000771F881FDAF7880F9695879597F90895C8
:100F1000990F0008550FAA0BE0E8FEEF161617060A
:100F2000E807F907C0F012161306E407F50798F072
:100F3000621B730B840B950B39F40A2661F0232B8B
:100F4000242B252B21F408950A2609F4A140A69507
:100F50008FEF811D811D089597F99F6780E870E0EC
:100F600060E008959FEF80EC089500240A9416161F
:100F7000170618060906089500240A941216130687
:100F8000140605060895092E0394000C11F4882315
:100F900052F0BB0F40F4BF2B11F460FF04C06F5F31
:100FA0007F4F8F4F9F4F089557FD9058440F551F07
:100FB00059F05F3F71F04795880F97FB991F61F0DB
:100FC0009F3F79F087950895121613061406551F52
:100FD000F2CF4695F1DF08C0161617061806991FBE
:100FE000F1CF86957105610508940895E894BB27B3
:100FF00066277727CB0197F908950E94880708F4A0
:101000008FEF08950E9415080C94C3070E94B5073E
:1010100038F00E94BC0720F0952311F00C94AC0727
:101020000C94B20711240C94F7070E94D40770F3B4
:10103000959FC1F3950F50E0551F629FF001729F7D
:10104000BB27F00DB11D639FAA27F00DB11DAA1F8C
:10105000649F6627B00DA11D661F829F2227B00DD9
:10106000A11D621F739FB00DA11D621F839FA00D64
:10107000611D221F749F3327A00D611D231F849FB4
:10108000600D211D822F762F6A2F11249F5750400B
:101090009AF0F1F088234AF0EE0FFF1FBB1F661F86
:1010A000771F881F91505040A9F79E3F510580F04F
:1010B0000C94AC070C94F7075F3FE4F3983ED4F32D
:1010C000869577956795B795F795E7959F5FC1F7F3
:1010D000FE2B880F911D9695879597F90895A1E2AB
:1010E0001A2EAA1BBB1BFD010DC0AA1FBB1FEE1FA2
:1010F000FF1FA217B307E407F50720F0A21BB30BED
:10110000E40BF50B661F771F881F991F1A9469F768
:1011100060957095809590959B01AC01BD01CF01C4
:101120000895EF920F931F93CF93DF93E80147FD4C
:1011300002C034E001C034E1042E000C550B57FF0F
:1011400003C0519541955109E32E022F242FAE0182
:101150000E94B80ACE01DF91CF911F910F91EF90BD
:101160000895662777270C94120CAEE0B0E0EBEB05
:10117000F8E00C94250F0D891E8986E08C831A8374
:1011800009838FEF9FE79E838D83AE01475E5F4F9C
:101190006F89788DCE0101960E94D708EF81F8857E
:1011A000E00FF11F10822E96E4E00C94410FABE0AB
:1011B000B0E0EDEDF8E00C94170F6C017B018A01B3
:1011C000FC0117821682838181FFCCC1CE0101967A
:1011D0003C01F6019381F70193FD859193FF819185
:1011E0007F01882309F4BAC1853239F493FD8591D2
:1011F00093FF81917F01853229F4B60190E00E942E
:101200006F0EE7CF912C212C312CFFE1F315D8F094
:101210008B3279F038F4803279F08332A1F4232DC7
:1012200020611DC08D3261F0803369F4232D21606F
:1012300016C0832D8260382EE32DE4603E2E2AC036
:10124000F32DF8601DC037FC2DC020ED280F2A308B
:1012500040F08E32B9F436FC81C1232D2064322E49
:1012600019C036FE06C08AE0989E200D1124922EE9
:1012700011C0EAE02E9E200D1124222EF32DF062E3
:101280003F2E08C08C3621F4832D8068382E02C092
:10129000883641F4F70193FD859193FF81917F0199
:1012A0008111B3CF982F9F7D9554933028F40C5F14
:1012B0001F4F9FE399830DC0833631F0833771F060
:1012C000833509F059C021C0F801808189830E5F00
:1012D0001F4F88248394912C530113C02801F2E0FE
:1012E0004F0E511CF801A080B18036FE03C0692D5D
:1012F00070E002C06FEF7FEFC5010E94640E4C01E9
:101300008201F32DFF773F2E16C0280122E0420E06
:10131000511CF801A080B18036FE03C0692D70E039
:1013200002C06FEF7FEFC5010E94590E4C01F32DF3
:10133000F0683F2E820133FC1BC0822D90E088169E
:101340009906B0F4B60180E290E00E946F0E2A94F4
:10135000F4CFF50137FC859137FE81915F01B6012D
:1013600090E00E946F0E21102A9421E0821A9108C9
:101370008114910471F7E8C0843611F0893641F583
:10138000F80137FE07C060817181828193810C5F13
:101390001F4F08C060817181072E000C880B990BCC
:1013A0000E5F1F4FF32DFF763F2E97FF09C09095DC
:1013B0008095709561957F4F8F4F9F4FF0683F2EBE
:1013C0002AE030E0A3010E94AB0E882E861845C0AB
:1013D000853731F4232D2F7EB22E2AE030E025C050
:1013E000932D997FB92E8F36C1F018F4883579F096
:1013F000B5C0803719F0883721F0B0C0E92FE0611F
:10140000BE2EB4FE0DC0FB2DF460BF2E09C034FE0D
:101410000AC0292F2660B22E06C028E030E005C0A1
:1014200020E130E002C020E132E0F801B7FE07C061
:1014300060817181828193810C5F1F4F06C0608142
:10144000718180E090E00E5F1F4FA3010E94AB0E00
:10145000882E8618FB2DFF773F2E36FE0DC0232DDC
:101460002E7FA22E891458F434FE0BC032FC09C022
:10147000832D8E7EA82E05C0B82CA32C03C0B82CBB
:1014800001C0B92CA4FE0FC0FE01E80DF11D808142
:10149000803321F49A2D997EA92E09C0A2FE06C0A0
:1014A000B394B39404C08A2D867809F0B394A3FC56
:1014B00011C0A0FE06C0B21488F4280C922C9B1810
:1014C0000EC0B21460F4B60180E290E00E946F0E8C
:1014D000B394F7CFB21418F42B1802C0982C212C17
:1014E000A4FE10C0B60180E390E00E946F0EA2FE41
:1014F00017C0A1FC03C088E790E002C088E590E037
:10150000B6010CC08A2D867859F0A1FE02C08BE28C
:1015100001C080E2A7FC8DE2B60190E00E946F0E50
:10152000891438F4B60180E390E00E946F0E9A941B
:10153000F7CF8A94F301E80DF11D8081B60190E0A8
:101540000E946F0E8110F5CF222009F442CEB60121
:1015500080E290E00E946F0E2A94F6CFF601868119
:10156000978102C08FEF9FEF2B96E2E10C94330F2F
:10157000A9E0B0E0EEEBFAE00C941D0F6A01122F27
:10158000B02E2BE3201720F0FF24F394F00E02C0BE
:101590002CE3F22E0F2D27E0AE014F5F5F4F0E942C
:1015A000600DBC014981842F8970813031F0E1FCEC
:1015B00006C0E0FE06C090E205C09DE203C09BE2CB
:1015C00001C090E05E2D507143FF3CC0911102C0FC
:1015D00083E001C084E0811718F4212F281B01C08B
:1015E00020E051110BC0F601822F30E2882319F060
:1015F00031938150FBCFC20ED11C20E0992329F0FA
:10160000D6019C93F60131966F01C6010396E2FE66
:101610000AC03EE4D6013C9341E411964C931197E5
:1016200012963C9306C03EE6F601308341E64183C4
:101630003283FC01322F40E2332309F442C041934C
:101640003150FACF42FF44C0911102C083E001C083
:1016500084E0811718F4212F281B01C020E05111CC
:101660000BC0F601822F30E2882319F031938150AC
:10167000FBCFC20ED11C20E0992329F0D6019C9308
:10168000F60131966F01C6010396E2FE0BC039E404
:10169000D6013C933EE411963C93119736E41296A2
:1016A0003C9307C039E6F60130833EE6318336E6E7
:1016B0003283FC01322F40E2332319F04193315041
:1016C000FBCFFC01E20FF11D10828EEF9FEFA6C051
:1016D00021E030E0911102C020E030E0161617063C
:1016E0001CF4FB01319602C0E1E0F0E02E0F3F1F39
:1016F000BB2021F0EB2DF0E0319602C0E0E0F0E0FD
:101700002E0F3F1FE12FF0E02E173F071CF4121B96
:10171000212F01C020E08E2D887159F4F601822F0F
:1017200030E2882319F031938150FBCFC20ED11CD7
:1017300020E0992329F0D6019C93F60131966F01A0
:1017400051110BC0F601822F90E3882319F0919379
:101750008150FBCFC20ED11C20E00F2D060F9A81C5
:10176000342F307144FF03C0913309F40150101637
:1017700024F4093018F008E001C001E0AB0177FF64
:1017800002C040E050E0FB01E41BF50BA1E0B0E03B
:10179000AC0FBD1FEA0FFB1F8EE2A82E4B01801A73
:1017A00091080B2D10E01195019511094F3FBFEFE6
:1017B0005B0721F4D601AC9211966D016417750791
:1017C0002CF08416950614F4818101C080E3415009
:1017D00051093196D60111967D014017510724F029
:1017E000D6018C936701E2CF6417750739F49633FD
:1017F00020F4953319F4311101C081E3F60180839F
:10180000F701822F90E2882319F091938150FBCF4A
:10181000F701E20FF11D108280E090E02996ECE0E4
:101820000C94390FA0E0B0E0E8E1FCE00C941D0F4F
:10183000EC016B016115710519F0FB019183808347
:101840007E01FFEFEF1AFF0A0881802F90E00E94CF
:10185000380E892B11F0E701F3CF0D3239F47E01F8
:1018600082E0E80EF11C098111E008C00B3229F476
:101870007E0192E0E90EF11C098110E0E701219759
:1018800043E050E06CEB70E0CE010E94410E892BEA
:10189000C1F4239645E050E067EB70E0CE010E9472
:1018A000410E892B09F42596C114D10419F0F601D3
:1018B000D183C0831111F6C060E070E080E89FE73B
:1018C000FAC043E050E064EB70E0CE010E94410EAC
:1018D000892B59F4C114D10409F4E9C0F2E0EF0EE8
:1018E000F11CF601F182E082E2C020E030E0A901C3
:1018F000C0E0D0E0F70180EDA82EA00E89E08A15A7
:1019000030F1912F9260B92E812F887012FF04C0A0
:10191000811124C0219622C081112197A5E0B0E059
:101920000E940C0FDC01CB01880F991FAA1FBB1F5F
:101930009C01AD012A0D311D411D511D283989E938
:101940003807480789E1580748F0166006C09EEF3F
:10195000A9120AC013FD40C01860B12E8FEFE81A1B
:10196000F80A00811B2DC6CF802F8F7D8534A1F50D
:1019700080818D3211F4106106C08B3221F03196D6
:1019800061E070E004C08181329662E070E08053D3
:101990008A3018F0E61BF70B1FC060E070E060387B
:1019A0009CE079075CF4DB01AA0FBB1FAA0FBB1FE9
:1019B0006A0F7B1F660F771F680F711D3196DF015D
:1019C00011978C9180538A3050F314FF03C07195A6
:1019D00061957109C60FD71F11FF08C0C114D1044A
:1019E00029F0CF010197F60191838083CA01B901E3
:1019F0000E944B07212F2370233019F04B015C010B
:101A000006C04B015C01B7FAB094B7F8B09420E07F
:101A100030E0A901C501B4010E94A506882309F49C
:101A20003EC0D7FF06C0D195C195D10903ED10E0A6
:101A300002C00BEE10E06801F8E1CF1AD10890E285
:101A4000E92EF12CCE15DF0574F0F80125913591C2
:101A500045915491C501B4010E9402084B015C01FB
:101A6000CE19DF09EFCF04501109F594E7940C1556
:101A70001D0541F78A2D880F8B2D881F8F3F49F058
:101A800020E030E0A901C501B4010E94A506811142
:101A900006C082E290E090939C0180939B01C50177
:101AA000B40109C060E070E080E89FEF04C060E02E
:101AB00070E080EC9FE7CDB7DEB7ECE00C94390F17
:101AC000283008F027E03327DA01990F311D87FD10
:101AD000916000966105710539F432602E5F3D9387
:101AE00030E32A95E1F708959F3F30F08038710583
:101AF000610509F03C5F3C5F3D93913008F08068E0
:101B0000911DDF93CF931F930F93FF92EF92192FA5
:101B1000987F9695E92F96959695E90FFF27E75BB5
:101B2000FE4F99273327EE24FF24A701E7010590F4
:101B30000894079428F4360FE71EF81E491F511D1C
:101B4000660F771F881F991F0694A1F705900794C9
:101B500028F4E70EF81E491F561FC11D770F881F76
:101B6000991F661F0694A1F70590079428F4F80EB4
:101B7000491F561FC71FD11D880F991F661F771F4A
:101B80000694A1F70590079420F4490F561FC71F2C
:101B9000D81F990F661F771F881F0694A9F7849195
:101BA0001095177041F0D695C79557954795F794BE
:101BB000E7941A95C1F7EFEEF0E06894159015914F
:101BC00035916591959105907FE27395E118F10A41
:101BD000430B560BC90BD009C0F7E10CF11E431F94
:101BE000561FC91FD01D7EF4703311F48A95E6CFBD
:101BF000E894015030F0080F0AF40027021708F4A7
:101C0000202F2395022F7A3328F079E37D932A95AC
:101C1000E9F710C07D932A9589F606949795679504
:101C2000379517951794E118F10A430B560BC90B1A
:101C3000D00998F023957E9173957A3308F070E37C
:101C40007C932013B8F77E9170617D9330F083957B
:101C500071E37D9370E32A95E1F71124EF90FF90F3
:101C60000F911F91CF91DF91992787FD909508954E
:101C700091110C94090F803219F089508550C8F7E2
:101C80000895FB01DC014150504088F08D91813472
:101C90001CF08B350CF4805E659161341CF06B3563
:101CA0000CF4605E861B611171F3990B0895881B1B
:101CB000FCCFFC010590615070400110D8F7809571
:101CC00090958E0F9F1F0895FC0161507040019008
:101CD0000110D8F7809590958E0F9F1F08950F9350
:101CE0001F93CF93DF93FB01238121FD03C08FEF6F
:101CF0009FEF2CC022FF16C0468157812481358179
:101D00004217530744F4A081B1819D012F5F3F4FDB
:101D1000318320838C93268137812F5F3F4F378318
:101D2000268314C08B01EC01FB010084F185E02DBA
:101D30000995892BE1F6D80116968D919C911797FC
:101D4000019617969C938E931697CE01DF91CF91B3
:101D50001F910F910895FA01AA27283051F12031DF
:101D600081F1E8946F936E7F6E5F7F4F8F4F9F4F2F
:101D7000AF4FB1E03ED0B4E03CD0670F781F891F71
:101D80009A1FA11D680F791F8A1F911DA11D6A0F3F
:101D9000711D811D911DA11D20D009F468943F91F2
:101DA0002AE0269F11243019305D3193DEF6CF01F1
:101DB0000895462F4770405D4193B3E00FD0C9F7B7
:101DC000F6CF462F4F70405D4A3318F0495D31FD24
:101DD0004052419302D0A9F7EACFB4E0A695979577
:101DE000879577956795BA95C9F70097610571054D
:101DF00008959B01AC010A2E069457954795379597
:101E00002795BA95C9F7620F731F841F951FA01DF0
:101E100008959927882708950E944E0FA59F900D39
:101E2000B49F900DA49F800D911D112408952F92B1
:101E30003F924F925F926F927F928F929F92AF925A
:101E4000BF92CF92DF92EF92FF920F931F93CF93A7
:101E5000DF93CDB7DEB7CA1BDB0B0FB6F894DEBF3E
:101E60000FBECDBF09942A88398848885F846E8464
:101E70007D848C849B84AA84B984C884DF80EE80AE
:101E8000FD800C811B81AA81B981CE0FD11D0FB6B7
:101E9000F894DEBF0FBECDBFED010895A29FB00143
:101EA000B39FC001A39F700D811D1124911DB29F8E
:0E1EB000700D811D1124911D0895F894FFCF2F
:0C1EBE0025730A0D00217325730D000030
:00000001FF
